:020000040000FA
:1000000040080020250200006502000009020000EF
:10001000690200006B0200006D0200000000000099
:100020000000000000000000000000006F0200005F
:100030007102000000000000730200007502000061
:1000400077020000770200007702000077020000CC
:1000500077020000770200007702000077020000BC
:1000600077020000770200007702000077020000AC
:10007000770200007702000077020000770200009C
:10008000770200007702000077020000770200008C
:10009000770200007702000077020000770200007C
:1000A000770200007702000077020000770200006C
:1000B000770200007702000077020000770200005C
:1000C00077020000650F0000770200007702000051
:1000D000F10F0000770200007702000077020000B5
:1000E000770200007702000077020000770200002C
:1000F000770200007702000077020000770200001C
:10010000770200007702000077020000770200000B
:1001100077020000770200007702000077020000FB
:1001200077020000770200007702000077020000EB
:1001300077020000770200007702000077020000DB
:1001400077020000770200007702000077020000CB
:1001500077020000770200007702000077020000BB
:1001600077020000770200007702000077020000AB
:10017000770200007702000077020000770200009B
:10018000770200007702000077020000770200008B
:10019000770200007702000077020000770200007B
:1001A000770200007702000077020000770200006B
:1001B000770200007702000077020000770200005B
:1001C000770200007702000077020000770200004B
:1001D000770200007702000077020000770200003B
:1001E000770200007702000077020000770200002B
:1001F00077020000DFF80CD000F08CF800480047D0
:10020000151900004008002004207146084202D061
:10021000EFF3098001E0EFF308807146004A1047D0
:100220003D0A000014484FF0590101604FF01601DB
:1002300001604FF0880101601048416841F480413D
:1002400041600F48416841F002014160416841F05E
:10025000040141600B48804707484FF000010160EE
:1002600009480047FEE7FEE7FEE7FEE7FEE7FEE798
:10027000FEE7FEE7FEE7FEE7000100400002004067
:10028000007000400D0E0000F501000040EA01037F
:100290009B0703D009E008C9121F08C0042AFAD23C
:1002A00003E011F8013B00F8013B521EF9D2704700
:1002B0002DE9F05F0546002092469B46884606469B
:1002C000814640241BE0284641464746224600F02E
:1002D00042F853465A46C01A914110D31146184667
:1002E000224600F029F82D1A67EB01084F462246F6
:1002F0000120002100F020F817EB00094E41201EDC
:10030000A4F10104DFDC484631462A464346BDE8F5
:10031000F09F0000064C074D06E0E06840F0010346
:1003200094E8070098471034AC42F6D3FFF766FF15
:10033000241E0000441E0000202A04DB203A00FA9C
:1003400002F1002070479140C2F1200320FA03F32C
:10035000194390407047202A04DB203A21FA02F02A
:100360000021704721FA02F3D040C2F120029140EF
:100370000843194670474FF08040D0F8401241F4CE
:100380008031C0F84012704700F01F0201219140F7
:10039000034A800F02EB800002680A430260704744
:1003A000040200402DE9F84F0D460446FFF7E3FF35
:1003B0004FF08040484ED0F80012C4B141F0040123
:1003C000C0F80012102000F009FA4FF4002000904D
:1003D000424843492844B34688426DD84FF000094B
:1003E0004FF0FF324F464E46AE46012015E041F039
:1003F0000101C0F80012012000F0F0F90020E6E74A
:10040000F2B3032839D0042802D0022805D102E033
:100410004FEA8E0501E04FEA4E0502236AB3BBFBAB
:10042000F3F1304CDFF8BCC00C44CCF1000C644557
:1004300020D80224C1F35D0ADFF8A0C00AFB04F152
:1004400001EB0C08DFF8A0C0E0450ED8B1EB950F2A
:1004500002D9A1EB950101E0C1EB9501914204D2D3
:100460000A0099462746064604D040F20121641C42
:100470008C42E1D95B1C202BD0D9401C042800E021
:1004800000E0BDD91948009900EB8630184A0843AE
:1004900002EB49210843B91E08434FF08041C1F8DF
:1004A0004002042000F09AF906FB09F6BBFBF6F0C7
:1004B00078434000BDE8F88F5CB10E494FF08040B2
:1004C000C0F84012042000F089F9BDE8F84F00F0B0
:1004D0009FB844F21E21F1E7001BB700800F05FD15
:1004E0008074D21A00F7C2FFC068780400C0FFFF12
:1004F00000FEFFFF1E4208004FF08041D1F80022AD
:100500000243C1F80022704710B500F05BFC0148BF
:10051000006810BD000000204FF08040D0F80002BD
:10052000C00700D000487047001BB7004FF0804064
:10053000D0F80002800702D54FF400407047002039
:100540007047000010B500F03DFC4FF08041D1F83D
:1005500034024207134817D0D1F8342202F00702C0
:10056000012A13D0D1F8342202F00702022A10D057
:10057000D1F8342202F00702032A0DD0D1F8341248
:1005800001F0070104290AD0006810BD0068400886
:1005900010BD0068800810BD0068C00810BD00686C
:1005A000000910BD0000002010B500F00BFC4FF05A
:1005B0008041D1F8340210F0700F144817D0D1F8F0
:1005C0003422C2F30212012A13D0D1F83422C2F32A
:1005D0000212022A10D0D1F83422C2F30212032AE6
:1005E0000DD0D1F83412C1F3021104290AD00068E9
:1005F00010BD0068400810BD0068800810BD00688C
:10060000C00810BD0068000910BD000000000020F7
:1006100008B510A10020096800914FF08041D1F881
:10062000401211F4A02F13D10B488A0310D4C1F348
:100630000800C1F38132094B801C1DF80220C1F370
:1006400044215843491C11FB02F1B0FBF1F0C000FA
:1006500008BD000001020204001BB700C0C62D0047
:1006600070B54FF080440646D4F8500200F01005F3
:100670001B48864200D90646D4F8000240F0040028
:10068000C4F80002102004F5007400F0A7F82069F7
:1006900040F007002061206A20F00F0020622068EF
:1006A000A4F50074C007314604D00020FFF77AFE9D
:1006B000064608E04FF40020FFF774FE0646D4F823
:1006C000500200F010050021022000F00BF82DB9B7
:1006D000D4F8000220F00400C4F80002304670BDD7
:1006E00000B0710B2DE9F0414FF080440746D4F87B
:1006F00050020E4600F01005D4F8000240F004004D
:10070000C4F80002102004F5007400F067F82069B6
:1007100040F007002061206A20F00F003043206283
:10072000206920F0070038432061A4F5007400F030
:1007300049FB002D05D1D4F8000220F00400C4F8D4
:100740000002BDE8F0810000F0B510F47F3F2ED02C
:100750004FF08043D3F8F431DFF878C0DFB21D4B9F
:10076000C0F381440C3B6FEA90450CF1040603EBA7
:100770008403012F02D0022C0DD001E0022C02D004
:10078000AC070AD00AE0C343DC06134B06D000F0E6
:100790001F041D2C02D0634600E033461C68C0F3E2
:1007A0008725C0F34416B540AC4314431C60420E89
:1007B00052070ED0084BC0F30172183B03EB8202C4
:1007C0001368C0F34264C0F304508440A3430B4356
:1007D0001360F0BD2C0200402802004030B5012417
:1007E00005460849A20705E0081EA1F1010101DC48
:1007F000002404E0D2F8503235EA0300F4D1204658
:1008000030BD000080F5200010B5104C01221146CB
:10081000204600F0FDF801220221204600F0F8F801
:1008200001220421204600F0F3F801221021204685
:1008300000F0EEF801222021204600F0E9F82046E1
:100840000122BDE81040402100F0E2B8C041004064
:100850000248016821F001010160704700C00040BA
:1008600010B5FFF7F5FF4FF080410020C1F80001FF
:1008700010BD10B500F086FABDE8104000F048B891
:1008800002460020B2F5001F12D00A492223CB6095
:100890004A6001220A610A69D207FCD10A6852063D
:1008A00005D5086840F0400008604FF0FF30704701
:1008B00000F002B800C000400B4900202222CA60AC
:1008C0004FF400124A60094A8A6001220A610A69EB
:1008D000D207FCD10A68520605D5086840F04000EE
:1008E00008604FF0FF30704700C0004003AA550079
:1008F00006480168C90301D50220704700688007D7
:1009000001D50120704700207047000000C0004062
:100910000248016841F001010160704700C00040D9
:1009200005490022CA604860012008610869C007C3
:10093000FCD188687047000000C0004030B5044614
:100940000D4600234FF44010FFF7EAFF2060022D10
:1009500002D24FF0FF3303E00248FFF7E1FF60608F
:10096000184630BD04003000054A2123D360506092
:100970009160012010611069C007FCD17047000030
:1009800000C000402DE9F0471F4E054688463068FC
:1009900040F010003060B7013846FFF771FF38466D
:1009A000FFF7BEFF4FF0FF3A401C1CD1381DFFF788
:1009B000B7FF401C17D11548FFF7B2FF4AF2A65106
:1009C000C84210D10024B94615E009EB840055F85F
:1009D00024100746FFF7C8FF3846FFF7A1FF55F878
:1009E0002410884206D0306820F010003060504655
:1009F000BDE8F087641C4445E7D3306820F0100060
:100A000030600020F4E7000000C000400800300023
:100A1000F0B500230127032507FA03F48C4309D11D
:100A200006685C0005FA04FC26EA0C0602FA04F4E7
:100A3000264306605B1C102BEED3F0BD044603A0DA
:100A400000F050FC204600F0EDFFFEE7496E204824
:100A5000617264204661756C742048616E646C65D7
:100A6000720A000002488069C0F3007070470000FD
:100A70000000074010B5114911A000F033FCFFF74A
:100A8000F1FF0028FBD000F05BFFFFF7F2FE1148FA
:100A90002E224FF40041C2604160012101610169D1
:100AA0000029FCD100F05AF9FFF7DAFE4FF0804040
:100AB00000E030BF01680029FBD110BD571B0000CA
:100AC000626F6F74206C6F61646572203A202573C9
:100AD0000D0A000000C0004010B50A4800F002FCFA
:100AE00009A000F0FFFB16A000F0FCFB224800F07C
:100AF000F9FB224800F0F6FBBDE81040204800F06A
:100B000053BE0000301C0000626F6F74206C6F6178
:100B1000646572203E3E3E3E3E207072652D7072CE
:100B20006F67616D6D6D696E67204150505F303148
:100B300020746F20307831303030300D0A000000E2
:100B4000626F6F74206C6F61646572203E3E3E3E42
:100B50003E207072652D70726F67616D6D6D696E8C
:100B600067204150505F303220746F20307831322E
:100B70003030300D0A000000981B0000E41B00001C
:100B80003000002000F01F02012191404009800048
:100B900000F1E020C0F88011704700F01F02012131
:100BA00091404009800000F1E020C0F8001170473A
:100BB000BFF34F8F05480168054A01F4E061114316
:100BC0000160BFF34F8F00BFFDE700000CED00E0B8
:100BD0000400FA0570B51FA000F084FB2D4800F05A
:100BE00081FB2D4800F07EFBFFF782FE02462B4979
:100BF0002BA000F077FB304C0B20E0600020606001
:100C0000012525612069C007FCD1A1682B4800F0AF
:100C100069FB0C20E0600420606025612069C0074A
:100C2000FCD1A168264800F05DFB4FF44010FFF7AF
:100C300077FE0146234800F055FB2348FFF770FE7E
:100C40000146224800F04EFBFFF70CFF0028FBD0C6
:100C500070BD0000626F6F74206C6F6164657220FC
:100C60003E3E3E3E3E206D616B6520737572652091
:100C7000434F4E46494720736574206173205B41A2
:100C800050524F4D2077697468204941505D0D0ADC
:100C900000000000841C0000CC1C00002C1B000085
:100CA000626F6F74206C6F61646572203A202573E7
:100CB000203A2025640D0A0000C00040E01D00001D
:100CC0009C1D0000141D000004003000581D000091
:100CD00070B500F057F84FF04020D0F8401121F0E7
:100CE000F001C0F840110520FFF706FC1120FFF7C6
:100CF00075FD0A20FFF700FC0A20FFF76FFD14487E
:100D0000FFF7AEFC11208407C4F83402114D2846C9
:100D1000FFF73AFB00224FF040712846FFF714FD21
:100D2000E06B20F47F00E063E06B40F4CC00E06314
:100D3000094D2846FFF728FB00224FF4E0412846E2
:100D4000FFF702FD00F03EF80020C4F8000170BD7E
:100D500000B0710B103D80570300C05E4FF0804023
:100D6000816841F002018160704700000121044A5E
:100D7000814002EB106002680A438A4302607047B8
:100D800008000040592110B5880716228823C0F8B2
:100D90000011C0F80021C0F80031D0F80041002C4B
:100DA000F5D010BD06498A691202FCD40A2804D184
:100DB0000D220A608A691202FCD4086070470000A4
:100DC0000000074010B5FFF723FC0E4A4FF08043A8
:100DD0009060D3F8101201F00701022903D002F14C
:100DE0000C0050F82100D3F8201201F00F01491C2B
:100DF000B0FBF1F00449106008444900B0FBF1F089
:100E0000506010BD0000002020A107001A480168B2
:100E100041F4700101601948C16C21F00F0141F0EB
:100E20000801C1644FF08040D0F8981241F480214D
:100E3000C0F89812D0F8081241F00201C0F8081268
:100E40000F49D1F8042102F0F732C1F80421D1F89A
:100E5000082102F0F732C1F80821D0F8081221F079
:100E60000201C0F808124FF04020D0F8401121F0E4
:100E7000F001C0F84011704788ED00E000C000406C
:100E80000010044010B50A4C4FF47A724FF0006124
:100E9000204600F04BF8206840F0005020602120F0
:100EA000FFF77BFE206840F08040206010BD00000E
:100EB0000001054010B588B0044620221749684655
:100EC000FFF7E4F9164A174B9003944204D1D0F887
:100ED0001402C0F3022110E09C4204D1D0F81402A5
:100EE000C0F3023109E01049D0F814028C4202D15B
:100EF000C0F3024101E0C0F30251022903D05DF8C2
:100F0000210008B010BD944201D09C4202D1FFF7ED
:100F100019FBF6E7FFF748FBF3E700000C1B0000A6
:100F200000000540000105400010054070B5164660
:100F30000D460446FFF7BEFF0023B6EB500F01D964
:100F4000022206E0B0FBF6F2130E02D0591CB2FBEF
:100F5000F1F21D43256062605B1C5A43B0FBF2F066
:100F600070BD000010B517488168C1F30001002969
:100F700026D00121816000F0A9FD134C42F21071CE
:100F80006068B0FBF1F201FB120030B9A2680F49B2
:100F9000501CA0600EA000F0A5F96068FA21B0FB1B
:100FA000F1F201FB120000280AD11048016881F01B
:100FB000010101600D481030016881F001010160FC
:100FC00010BD00000001054034000020861B000019
:100FD000626F6F74206C6F61646572203A202573B4
:100FE000203A202534640D0A00000000C04900406A
:100FF00010B50B4CE06910F4885F02D104E000F0FA
:1010000033F9A1694904FAD5A169204611F0710F9D
:1010100005D0BDE810404FF4105100F07BB810BD72
:101020000000074010B51848FFF7A0FE174C4FF41A
:10103000E131204600F08CF8616840F6110211435E
:1010400061602420FFF7A9FDFFF75EFA014610A0BA
:1010500000F048F9FFF760FA014614A000F042F9E9
:10106000FFF764FA014617A000F03CF9FFF76AFAAF
:1010700001461AA000F036F9FFF796FA0146BDE8DE
:1010800010401DA000F02EB9100000040000074021
:101090000D0A434C4B5F476574435055467265716A
:1010A000203A202538640D0A00000000434C4B5FB5
:1010B00047657448585446726571203A2025386453
:1010C0000D0A0000434C4B5F4765744C5854467200
:1010D0006571203A202538640D0A0000434C4B5FAF
:1010E00047657450434C4B3046726571203A202559
:1010F00038640D0A00000000434C4B5F4765745094
:10110000434C4B3146726571203A202538640D0AF4
:10111000000000004A0503D5702282610822826126
:101120000A0503D5426942F0010242618A0401D5F1
:10113000064A82614A0401D51F224264090404D58B
:101140008021C16140F20F318163704701000001CD
:101150002DE9FF4104463C480F4600250FC88DE8A5
:101160000F003A492E464FF080408C4206D1D0F80D
:101170001412D0F82002C1F301652AE034498C42F0
:1011800006D1D0F81412D0F82002C1F381652BE00B
:1011900030498C4208D1D0F81C12D0F83002C1F38B
:1011A000016500F00F0621E02B498C4208D1D0F8F0
:1011B0001C12D0F83002C1F38165C0F3031615E0AC
:1011C00026498C4208D1D0F81C12D0F83002C1F365
:1011D0000175C0F3032609E021498C4206D1D0F8FD
:1011E0001C12D0F830028D0FC0F3033600202063AC
:1011F0000320E060A0681B490840A060E846012D7C
:1012000002D1FFF705FA0190002F1AD058F82510E7
:10121000761CB1FBF6F000EB5700B0FBF7F0801E38
:10122000B0F5803F0AD3B1FBF6F000EBC700B0FB8E
:10123000F7F06FF0010101EB101001E040F04050B9
:101240006062BDE8FF810000DC1A0000000007407A
:1012500000100740002007400030074000400740D2
:10126000005007400FFFF0FF184810B50068C0B2EB
:1012700078281AD0582818D07F2804D9BDE8104003
:1012800013A000F02FB85A280FD00ADC4FF40051F9
:101290004FF4004231280AD032280CD0582813D1FC
:1012A00003E0782801D07A280ED1FFF781FC0B46A5
:1012B0004FF4803002E00B464FF4903000F076FAA5
:1012C000BDE81040FFF7D6BB10BD0000000007408E
:1012D000696E76616C696420636F6D6D616E640D1B
:1012E0000A0000000FB4054B10B503A9044A029888
:1012F00000F018F810BC5DF814FB00009D1700000A
:101300002C00002002E008C8121F08C1002AFAD1F0
:1013100070477047002001E001C1121F002AFBD175
:10132000704700002DE9FF4F8DB00F46054600269F
:1013300006E025280BD0DDE90F1290476D1C761CC6
:1013400028780028F5D111B03046BDE8F08F002490
:10135000A246A1460122EC4900E0044315F8013FF2
:10136000203B02FA03F00842F7D128782A2810D04F
:101370006FF02F022878A0F13001092914D80AEB68
:101380008A0102EB410144F0020400EB010A6D1CEA
:10139000F0E701CF5FEA000A03D544F40054CAF134
:1013A000000A44F002046D1C28782E2817D115F885
:1013B000010F44F004042A280ED06FF02F02287881
:1013C000A0F1300109290AD809EB890102EB41019A
:1013D00000EB01096D1CF2E757F8049B6D1C28789F
:1013E0006C280FD006DC4C2817D068280DD06A284E
:1013F00014D104E0742810D07A280FD10DE044F401
:1014000000140AE044F4801401E044F440146978C4
:10141000814202D104F580146D1C6D1C2A786E2A5D
:101420001FD00CDC632A31D004DC002A8BD0582A70
:1014300011D1A3E0642A68D0692A0CD165E0732A2F
:101440002ED004DC6F2A73D0702A04D19BE0752A59
:101450006FD0782A6ED01046DDE90F129047761CC7
:1014600050E1C4F30250022806D0032809D0042812
:1014700001CF09D0066045E101CFF117C0E9006155
:1014800040E101CF06803DE106703BE117F8040B17
:101490008DF8000000208DF80100EB46012003E0EC
:1014A00057F804BB4FF0FF3061074FF0000102D442
:1014B0000DE008F10101884649450FDA8045F8DB67
:1014C0001BF808100029F4D108E008F10101884652
:1014D0008142FADB1BF808100029F6D1DDE90F2361
:1014E000AAEB08008146214600F036F9304400EBB3
:1014F000080604E0DDE90F121BF8010B9047B8F174
:101500000108F7D221464846F7E00A21C4F3025306
:101510004FF0000B0891022B04D001CFC117032B11
:1015200009D00AE0FF1D27F00707F7E8020108E0ED
:1015300032E01FE020E000B2C117042B01D140B21D
:10154000C117031E71F1000307DA4FF0000CD0EB56
:101550000C006CEB01012D2302E0230504D52B23A5
:101560008DF82430012303E0E30701D02023F7E7BF
:10157000984658E00A2110E010210EE010204FF0AC
:10158000000B08900CE010214FF0000B44F0040415
:101590004FF00809089103E008214FF0000B089173
:1015A000C4F30253022B04D001CF0021032B06D039
:1015B00006E0FF1D27F00707F7E8020103E080B20D
:1015C000042B00D1C0B24FF0000823072BD5702A9E
:1015D00007D0DDF820C08CF0100C5CEA0B0C05D0B5
:1015E0000EE040238DF82430012308E050EA010387
:1015F00006D030238DF824308DF82520022398461C
:10160000DDF820C08CF0080C5CEA0B0C0BD150EA22
:10161000010301D1630706D530238DF824304FF044
:101620000108A9F10109582A04D038A20B9208AA8E
:101630000A920BE03AA2F9E75B46089AFEF738FEF9
:101640000B9B9B5C0A9A521E0A92137050EA01028D
:10165000F2D10A98ADEB000000F1200B600702D533
:1016600024F4803401E04FF00109D94502DDA9EBF3
:101670000B0000E0002000EB0B0141440890AAEBB6
:10168000010AE00306D4DDE90F232146504600F0AD
:1016900063F806444FF0000908E009A911F80900B1
:1016A000DDE90F12904709F10109761CC145F4DB11
:1016B000E0030CD5DDE90F232146504600F04CF83D
:1016C000064404E0DDE90F1230209047761C0899AB
:1016D000481E08900029F5DC08E00A980A9900786D
:1016E000491C0A91DDE90F129047761CBBF10001FD
:1016F000ABF1010BF1DC21465046DDE90F2300F090
:1017000019F806446D1C1BE60928010030313233FC
:10171000343536373839616263646566000000002D
:101720003031323334353637383941424344454617
:10173000000000002DE9F041044600251E46174632
:10174000880404D405E039462020B0476D1C641E8F
:10175000F9D52846BDE8F0812DE9F0410446002581
:101760001E469046C80301D5302700E02027880494
:1017700004D505E041463846B0476D1C641EF9D5D6
:101780002846BDE8F0810000034881694904FCD483
:101790000068C0B2704700000000074010B5044662
:1017A000FFF700FB204610BDFFF7EEBF2DE9F04725
:1017B000054601461E4690462DA0FFF793FD414683
:1017C00033A0FFF78FFDFFF754F800274FF4805A3E
:1017D00012E008EB07008146FFF752F800243819A1
:1017E00020F00300295809EB0400FFF7BDF8241D81
:1017F0005445F4D307F58057B742EAD32FA0FFF73B
:1018000071FD002722E0002408EB070909EB040022
:10181000FFF786F80246381920F003016958914213
:101820000DD0381920F003002B5808EB07000119E0
:1018300026A0FFF757FD4FF0FF30BDE8F087B0421C
:1018400002D2241D5445E1D307F58057B742DAD3BD
:1018500028A0FFF747FD294929A0FFF743FDFFF71F
:1018600001F90028FBD0FEF7FBFF0020E5E70000B0
:10187000696D6167655F626173652061646472654B
:1018800073732030782532582E2E2E0D0A0000005A
:1018900050726F6772616D20696D61676520746F4A
:1018A00020666C61736820616464726573732030B4
:1018B000782532582E2E2E0D0A0000004F4B2E0A8E
:1018C000566572696679202E2E2E0000646174615F
:1018D000206D69736D61746368206F6E20307825A8
:1018E000782C205B307825785D2C205B307825784B
:1018F0005D0A00004F4B2E0A00000000431B000051
:10190000626F6F74206C6F61646572203A2025737A
:101910000D0A0000FFF7DCF9FFF784FBFEF774FF08
:10192000FFF7B0FAFEF7A5FF00F042F8FFF752F913
:1019300000F018F8FEF794FFFFF7CEF8FEE700007E
:1019400010B52420FFF71EF92120FFF71BF92420F2
:10195000FFF70CFABDE810400148FFF707BA000096
:10196000030000044FF08040D0F8041241F004015D
:10197000C0F804120B48016841F0010101600168E0
:1019800041F00801016008480168084841434FF0F0
:10199000E020416100218161016941F0050101619F
:1019A0007047000000C0004004000020E0930400E5
:1019B0001CB502216846FEF7C1FF002805DA0DA01C
:1019C000FFF790FC4FF0FF301CBD009840060FD58C
:1019D0001348016841F0100101600098022120F0D5
:1019E000400000906846FEF7CDFF01208107886027
:1019F00000201CBD0A626F6F74206C6F6164657299
:101A0000203A2052656164205573657220436F6EE1
:101A1000666967206661696C6564210A00000000E0
:101A200000C0004010B50446016810A0FFF75AFC42
:101A300011A06168FFF756FC12A0A168FFF752FCE5
:101A400013A0E168FFF74EFC14A02169FFF74AFCE0
:101A500015A06169FFF746FC16A0A169FFF742FCDB
:101A6000E169BDE8104016A0FFF73CBC72302020B1
:101A70003D20307825780A00723120203D203078D2
:101A800025780A00723220203D20307825780A001F
:101A9000723320203D20307825780A0072313220C0
:101AA0003D20307825780A006C7220203D20307867
:101AB00025780A00706320203D20307825780A00C0
:101AC000707372203D20307825780A000248416802
:101AD000491C41607047000034000020001BB70023
:101AE0000000000000800000001BB700001BB700D2
:101AF0000000000000800000001BB700001BB700C2
:101B00000000000000800000001BB700001BB700B1
:101B10000080000000000000000000000000000045
:101B20001027000000000000001BB7005265616430
:101B30005F425300636F6D706172655F62756666C8
:101B40006572006C6F61645F696D6167655F746F7A
:101B50005F666C617368004A756D705F546F5F41BA
:101B600070706C69636174696F6E00436865636B64
:101B70005F69665F46575F7570646174655F54693D
:101B80006D654F757400544D52315F495251486133
:101B90006E646C6572000000626F6F74206C6F6120
:101BA000646572203A205B315D202C207570646181
:101BB0007465204150505F303120746F2030783888
:101BC000303030202C2020284150505F303120739D
:101BD000746F726520696E20307831303030302972
:101BE0000D0A0000626F6F74206C6F616465722073
:101BF0003A205B325D202C20757064617465204151
:101C000050505F303220746F2030783830303020C0
:101C10002C20284150505F30322073746F72652041
:101C2000696E2030783132303030290D0A000000E2
:101C3000626F6F74206C6F61646572203A20736507
:101C40006C656374696F6E206F7074696F6E207459
:101C50006F206D616E75616C2075706461746520B4
:101C60006669726D77617265206F72206A756D703A
:101C700020746F206170706C69636174696F6E2E7F
:101C80000D0A0000626F6F74206C6F6164657220D2
:101C90003E3E3E3E3E204150505F303120696E2036
:101CA0004B45494C206C696E6B6572206F7074698E
:101CB0006F6E20522F4F2062617365203A3078306A
:101CC000303030383030300D0A000000626F6F74F1
:101CD000206C6F61646572203E3E3E3E3E20415066
:101CE000505F303220696E204B45494C206C696E44
:101CF0006B6572206F7074696F6E20522F4F206277
:101D0000617365203A307830303030383030300D03
:101D10000A000000626F6F74206C6F61646572204E
:101D20003A205573657220436F6E666967203020D4
:101D30002E2E2E2E2E2E2E2E2E2E2E2E2E2E2E2EC3
:101D40002E2E2E2E2E2E2E2E2E205B307825303845
:101D5000585D0D0A00000000626F6F74206C6F61A7
:101D6000646572203A205573657220436F6E666910
:101D7000672031202E2E2E2E2E2E2E2E2E2E2E2E63
:101D80002E2E2E2E2E2E2E2E2E2E2E2E2E205B3052
:101D900078253038585D0D0A00000000626F6F74BE
:101DA000206C6F61646572203A2050726F647563B5
:101DB00074204944202E2E2E2E2E2E2E2E2E2E2EE8
:101DC0002E2E2E2E2E2E2E2E2E2E2E2E2E2E2E2E33
:101DD0002E205B3078253038585D0D0A0000000059
:101DE000626F6F74206C6F61646572203A20436F7C
:101DF0006D70616E79204944202E2E2E2E2E2E2EAF
:101E00002E2E2E2E2E2E2E2E2E2E2E2E2E2E2E2EF2
:101E10002E2E2E2E2E205B3078253038585D0D0A60
:101E200000000000441E00000000002040000000F0
:101E300004130000841E0000400000200008000081
:101E400014130000001BB7000C000000001BB700BB
:101E5000001BB700008000000000000010270000F9
:101E6000000000000000000000000000001BB700A0
:101E70000000000000000000000000000000000062
:041E8000000000005E
:0400000500000225D0
:00000001FF
