:020000040000FA
:1080000040080020258200006582000009820000EF
:10801000698200006B8200006D8200000000000099
:108020000000000000000000000000006F8200005F
:108030007182000000000000738200007582000061
:10804000778200007782000077820000778200004C
:10805000778200007782000077820000778200003C
:10806000778200007782000077820000778200002C
:10807000778200007782000077820000778200001C
:10808000778200007782000077820000778200000C
:1080900077820000778200007782000077820000FC
:1080A00077820000778200007782000077820000EC
:1080B00077820000778200007782000077820000DC
:1080C00077820000198C0000778200007782000020
:1080D0008D8C00007782000077820000778200009C
:1080E00077820000778200007782000077820000AC
:1080F000778200007782000077820000778200009C
:10810000778200007782000077820000778200008B
:10811000778200007782000077820000778200007B
:10812000778200007782000077820000778200006B
:10813000778200007782000077820000778200005B
:10814000778200007782000077820000778200004B
:10815000778200007782000077820000778200003B
:10816000778200007782000077820000778200002B
:10817000778200007782000077820000778200001B
:10818000778200007782000077820000778200000B
:1081900077820000778200007782000077820000FB
:1081A00077820000778200007782000077820000EB
:1081B00077820000778200007782000077820000DB
:1081C00077820000778200007782000077820000CB
:1081D00077820000778200007782000077820000BB
:1081E00077820000778200007782000077820000AB
:1081F00077820000DFF80CD000F08CF800480047D0
:108200004F9400004008002004207146084202D02C
:10821000EFF3098001E0EFF308807146004A104750
:10822000BD88000014484FF0590101604FF016015D
:1082300001604FF0880101601048416841F48041BD
:1082400041600F48416841F002014160416841F0DE
:10825000040141600B48804707484FF0000101606E
:1082600009480047FEE7FEE7FEE7FEE7FEE7FEE718
:10827000FEE7FEE7FEE7FEE70001004000020040E7
:1082800000700040C18A0000F581000040EA01034F
:108290009B0703D009E008C9121F08C0042AFAD2BC
:1082A00003E011F8013B00F8013B521EF9D2704780
:1082B0002DE9F05F0546002092469B46884606461B
:1082C000814640241BE0284641464746224600F0AE
:1082D00042F853465A46C01A914110D311461846E7
:1082E000224600F029F82D1A67EB01084F46224676
:1082F0000120002100F020F817EB00094E41201E5C
:10830000A4F10104DFDC484631462A464346BDE875
:10831000F09F0000064C074D06E0E06840F00103C6
:1083200094E8070098471034AC42F6D3FFF766FF95
:10833000C0950000E0950000202A04DB203A00FAF6
:1083400002F1002070479140C2F1200320FA03F3AC
:10835000194390407047202A04DB203A21FA02F0AA
:108360000021704721FA02F3D040C2F1200291406F
:108370000843194670474FF08040D0F8401241F44E
:108380008031C0F84012704700F01F020121914077
:10839000034A800F02EB800002680A4302607047C4
:1083A000040200402DE9F84F0D460446FFF7E3FFB5
:1083B0004FF08040484ED0F80012C4B141F00401A3
:1083C000C0F80012102000F009FA4FF400200090CD
:1083D000424843492844B34688426DD84FF00009CB
:1083E0004FF0FF324F464E46AE46012015E041F0B9
:1083F0000101C0F80012012000F0F0F90020E6E7CA
:10840000F2B3032839D0042802D0022805D102E0B3
:108410004FEA8E0501E04FEA4E0502236AB3BBFB2B
:10842000F3F1304CDFF8BCC00C44CCF1000C6445D7
:1084300020D80224C1F35D0ADFF8A0C00AFB04F1D2
:1084400001EB0C08DFF8A0C0E0450ED8B1EB950FAA
:1084500002D9A1EB950101E0C1EB9501914204D253
:108460000A0099462746064604D040F20121641CC2
:108470008C42E1D95B1C202BD0D9401C042800E0A1
:1084800000E0BDD91948009900EB8630184A08432E
:1084900002EB49210843B91E08434FF08041C1F85F
:1084A0004002042000F09AF906FB09F6BBFBF6F047
:1084B00078434000BDE8F88F5CB10E494FF0804032
:1084C000C0F84012042000F089F9BDE8F84F00F030
:1084D0009FB844F21E21F1E7001BB700800F05FD95
:1084E0008074D21A00F7C2FFC068780400C0FFFF92
:1084F00000FEFFFF1E4208004FF08041D1F800222D
:108500000243C1F80022704710B500F0B5FA0148E7
:10851000006810BD000000204FF08040D0F800023D
:10852000C00700D000487047001BB7004FF08040E4
:10853000D0F80002800702D54FF4004070470020B9
:108540007047000010B500F097FA4FF08041D1F865
:1085500034024207134817D0D1F8342202F0070240
:10856000012A13D0D1F8342202F00702022A10D0D7
:10857000D1F8342202F00702032A0DD0D1F83412C8
:1085800001F0070104290AD0006810BD0068400806
:1085900010BD0068800810BD0068C00810BD0068EC
:1085A000000910BD0000002010B500F065FA4FF082
:1085B0008041D1F8340210F0700F144817D0D1F870
:1085C0003422C2F30212012A13D0D1F83422C2F3AA
:1085D0000212022A10D0D1F83422C2F30212032A66
:1085E0000DD0D1F83412C1F3021104290AD0006869
:1085F00010BD0068400810BD0068800810BD00680C
:10860000C00810BD0068000910BD00000000002077
:1086100008B510A10020096800914FF08041D1F801
:10862000401211F4A02F13D10B488A0310D4C1F3C8
:108630000800C1F38132094B801C1DF80220C1F3F0
:1086400044215843491C11FB02F1B0FBF1F0C0007A
:1086500008BD000001020204001BB700C0C62D00C7
:1086600070B54FF080440646D4F8500200F0100573
:108670001B48864200D90646D4F8000240F00400A8
:10868000C4F80002102004F5007400F0A7F8206977
:1086900040F007002061206A20F00F00206220686F
:1086A000A4F50074C007314604D00020FFF77AFE1D
:1086B000064608E04FF40020FFF774FE0646D4F8A3
:1086C000500200F010050021022000F00BF82DB937
:1086D000D4F8000220F00400C4F80002304670BD57
:1086E00000B0710B2DE9F0414FF080440746D4F8FB
:1086F00050020E4600F01005D4F8000240F00400CD
:10870000C4F80002102004F5007400F067F8206936
:1087100040F007002061206A20F00F003043206203
:10872000206920F0070038432061A4F5007400F0B0
:10873000A3F9002D05D1D4F8000220F00400C4F8FC
:108740000002BDE8F0810000F0B510F47F3F2ED0AC
:108750004FF08043D3F8F431DFF878C0DFB21D4B1F
:10876000C0F381440C3B6FEA90450CF1040603EB27
:108770008403012F02D0022C0DD001E0022C02D084
:10878000AC070AD00AE0C343DC06134B06D000F066
:108790001F041D2C02D0634600E033461C68C0F362
:1087A0008725C0F34416B540AC4314431C60420E09
:1087B00052070ED0084BC0F30172183B03EB820244
:1087C0001368C0F34264C0F304508440A3430B43D6
:1087D0001360F0BD2C0200402802004030B5012497
:1087E00005460849A20705E0081EA1F1010101DCC8
:1087F000002404E0D2F8503235EA0300F4D12046D8
:1088000030BD000080F5200010B5104C012211464B
:10881000204600F03DF801220221204600F038F801
:1088200001220421204600F033F8012210212046C5
:1088300000F02EF801222021204600F029F82046E1
:108840000122BDE81040402100F022B8C0410040A4
:108850000248016821F001010160704700C000403A
:1088600010B5FFF7F5FF4FF080410020C1F800017F
:1088700010BD10B500F0E0F8BDE81040AFF3008087
:108880000248016841F001010160704700C00040EA
:10889000F0B500230127032507FA03F48C4309D11F
:1088A00006685C0005FA04FC26EA0C0602FA04F4E9
:1088B000264306605B1C102BEED3F0BD044603A0DC
:1088C00000F06EFB204600F0DDFDFEE7496E20481B
:1088D000617264204661756C742048616E646C65D9
:1088E000720A000002488069C0F3007070470000FF
:1088F0000000074010B5114911A000F051FBFFF72F
:10890000F1FF0028FBD000F0ABFDFFF7B2FF1148EC
:1089100000212E22C260416001210161016900290C
:10892000FCD100F075F8FFF79BFF4FF0804000E0AE
:1089300030BF01680029FBD110BD00009B950000ED
:108940006170706C69636174696F6E203A20257381
:108950000D0A000000C0004000F01F0201219140FC
:108960004009800000F1E020C0F88011704700F05D
:108970001F02012191404009800000F1E020C0F871
:108980000011704770B500F057F84FF04020D0F854
:10899000401121F0F001C0F840110520FFF7ACFDB7
:1089A0001120FFF71BFF0A20FFF7A6FD0A20FFF7A3
:1089B00015FF1448FFF754FE11208407C4F8340251
:1089C000114D2846FFF7E0FC00224FF04071284689
:1089D000FFF7BAFEE06B20F47F00E063E06B40F449
:1089E000CC00E063094D2846FFF7CEFC00224FF48F
:1089F000E0412846FFF7A8FE00F03EF80020C4F84A
:108A0000000170BD00B0710B103D80570300C05EC7
:108A10004FF08040816841F00201816070470000A2
:108A20000121044A814002EB106002680A438A4334
:108A30000260704708000040592110B588071622CF
:108A40008823C0F80011C0F80021C0F80031D0F828
:108A50000041002CF5D010BD06498A691202FCD4F1
:108A60000A2804D10D220A608A691202FCD4086027
:108A7000704700000000074010B5FFF7C9FD0E4A1F
:108A80004FF080439060D3F8101201F007010229E3
:108A900003D002F10C0050F82100D3F8201201F0AD
:108AA0000F01491CB0FBF1F0044910600844490073
:108AB000B0FBF1F0506010BD0000002020A10700C5
:108AC0001A48016841F4700101601948C16C21F035
:108AD0000F0141F00801C1644FF08040D0F89812B6
:108AE00041F48021C0F89812D0F8081241F0020138
:108AF000C0F808120F49D1F8042102F0F732C1F88A
:108B00000421D1F8082102F0F732C1F80821D0F889
:108B1000081221F00201C0F808124FF04020D0F8EE
:108B2000401121F0F001C0F84011704788ED00E0DD
:108B300000C000400010044010B50A4C4FF47A7297
:108B40004FF00061204600F04BF8206840F00050E4
:108B500020602120FFF70BFF206840F0804020605C
:108B600010BD00000001054010B588B00446202269
:108B700017496846FFF78AFB164A174B9003944241
:108B800004D1D0F81402C0F3022110E09C4204D1B9
:108B9000D0F81402C0F3023109E01049D0F81402F1
:108BA0008C4202D1C0F3024101E0C0F3025102291C
:108BB00003D05DF8210008B010BD944201D09C4262
:108BC00002D1FFF7BFFCF6E7FFF7EEFCF3E700008A
:108BD0006C950000000005400001054000100540B4
:108BE00070B516460D460446FFF7BEFF0023B6EBF0
:108BF000500F01D9022206E0B0FBF6F2130E02D0AC
:108C0000591CB2FBF1F21D43256062605B1C5A43A4
:108C1000B0FBF2F070BD000010B513488168C1F3DD
:108C2000000100291FD00121816000F07FFC0F4B63
:108C30004FF47A715868B0FBF1F201FB1200002882
:108C400011D19A680A49501C98600AA000F0A8F94E
:108C50000D48016881F0010101600B481030016886
:108C600081F00101016010BD0001054030000020CD
:108C7000AE9500004150505F3031203A20257320DE
:108C80003A202534640D0A00C049004010B50B4C51
:108C9000E06910F4885F02D104E000F049F9A169AD
:108CA0004904FAD5A169204611F0710F05D0BDE83D
:108CB00010404FF4105100F087B810BD000007407D
:108CC00010B51E48FFF7ACFE1D4C4FF4E1312046B5
:108CD00000F098F81421204600F020F9A06820F058
:108CE0001000A060A06840F02000A060606840F61E
:108CF0001101084360602420FFF739FEFFF704FCF0
:108D0000014610A000F04CF9FFF706FC014614A044
:108D100000F046F9FFF70AFC014617A000F040F901
:108D2000FFF710FC01461AA000F03AF9FFF73CFCEF
:108D30000146BDE810401DA000F032B9100000044B
:108D4000000007400D0A434C4B5F47657443505584
:108D500046726571203A202538640D0A0000000033
:108D6000434C4B5F47657448585446726571203ACE
:108D7000202538640D0A0000434C4B5F4765744C56
:108D8000585446726571203A202538640D0A000057
:108D9000434C4B5F47657450434C4B304672657192
:108DA000203A202538640D0A00000000434C4B5F38
:108DB00047657450434C4B3146726571203A20250B
:108DC00038640D0A000000004A0503D57022826154
:108DD000082282610A0503D5426942F0010242611C
:108DE0008A0401D5064A82614A0401D51F224264E1
:108DF000090404D58021C16140F20F3181637047BD
:108E0000010000012DE9FF4104463C480F460025C2
:108E10000FC88DE80F003A492E464FF080408C4233
:108E200006D1D0F81412D0F82002C1F301652AE06F
:108E300034498C4206D1D0F81412D0F82002C1F384
:108E400081652BE030498C4208D1D0F81C12D0F853
:108E50003002C1F3016500F00F0621E02B498C427E
:108E600008D1D0F81C12D0F83002C1F38165C0F3EC
:108E7000031615E026498C4208D1D0F81C12D0F810
:108E80003002C1F30175C0F3032609E021498C4289
:108E900006D1D0F81C12D0F830028D0FC0F3033683
:108EA000002020630320E060A0681B490840A06008
:108EB000E846012D02D1FFF7ABFB0190002F1AD03D
:108EC00058F82510761CB1FBF6F000EB5700B0FB0C
:108ED000F7F0801EB0F5803F0AD3B1FBF6F000EB4F
:108EE000C700B0FBF7F06FF0010101EB101001E0DB
:108EF00040F040506062BDE8FF8100003C950000FA
:108F000000000740001007400020074000300740E5
:108F100000400740005007400FFFF0FF026A22F0B8
:108F2000FF020A430262416841F4006141607047F8
:108F300013480068C0B2782806D0582804D07F288B
:108F40000FD910A000F02CB8BFF34F8F1248016862
:108F5000124A01F4E06111430160BFF34F8F00BF7B
:108F6000FDE75A2809D004DC312808D0582806D15A
:108F700003E0782801D07A2801D1FFF7BBBC704705
:108F800000000740696E76616C696420636F6D6DE7
:108F9000616E640D0A0000000CED00E00400FA05AB
:108FA0000FB4054B10B503A9044A029800F018F855
:108FB00010BC5DF814FB0000439400002C0000205E
:108FC00002E008C8121F08C1002AFAD17047704792
:108FD000002001E001C1121F002AFBD170470000F0
:108FE0002DE9FF4F8DB00F460546002606E02528E7
:108FF0000BD0DDE90F1290476D1C761C28780028F5
:10900000F5D111B03046BDE8F08F0024A246A1464C
:109010000122EC4900E0044315F8013F203B02FA2D
:1090200003F00842F7D128782A2810D06FF02F02D9
:109030002878A0F13001092914D80AEB8A0102EB43
:10904000410144F0020400EB010A6D1CF0E701CF7E
:109050005FEA000A03D544F40054CAF1000A44F060
:1090600002046D1C28782E2817D115F8010F44F042
:1090700004042A280ED06FF02F022878A0F13001C6
:1090800009290AD809EB890102EB410100EB01092A
:109090006D1CF2E757F8049B6D1C28786C280FD0E4
:1090A00006DC4C2817D068280DD06A2814D104E0BB
:1090B000742810D07A280FD10DE044F400140AE08F
:1090C00044F4801401E044F440146978814202D1F0
:1090D00004F580146D1C6D1C2A786E2A1FD00CDCE0
:1090E000632A31D004DC002A8BD0582A11D1A3E0A6
:1090F000642A68D0692A0CD165E0732A2ED004DC7A
:109100006F2A73D0702A04D19BE0752A6FD0782A19
:109110006ED01046DDE90F129047761C50E1C4F383
:109120000250022806D0032809D0042801CF09D014
:10913000066045E101CFF117C0E9006140E101CFD0
:1091400006803DE106703BE117F8040B8DF8000046
:1091500000208DF80100EB46012003E057F804BB26
:109160004FF0FF3061074FF0000102D40DE008F12D
:109170000101884649450FDA8045F8DB1BF80810E5
:109180000029F4D108E008F1010188468142FADBA8
:109190001BF808100029F6D1DDE90F23AAEB08001F
:1091A0008146214600F036F9304400EB080604E021
:1091B000DDE90F121BF8010B9047B8F10108F7D257
:1091C00021464846F7E00A21C4F302534FF0000B52
:1091D0000891022B04D001CFC117032B09D00AE05C
:1091E000FF1D27F00707F7E8020108E032E01FE063
:1091F00020E000B2C117042B01D140B2C117031EF9
:1092000071F1000307DA4FF0000CD0EB0C006CEBAF
:1092100001012D2302E0230504D52B238DF82430F2
:10922000012303E0E30701D02023F7E7984658E045
:109230000A2110E010210EE010204FF0000B0890E2
:109240000CE010214FF0000B44F004044FF008092B
:10925000089103E008214FF0000B0891C4F302537A
:10926000022B04D001CF0021032B06D006E0FF1D06
:1092700027F00707F7E8020103E080B2042B00D1D2
:10928000C0B24FF0000823072BD5702A07D0DDF8B5
:1092900020C08CF0100C5CEA0B0C05D00EE04023D3
:1092A0008DF82430012308E050EA010306D0302372
:1092B0008DF824308DF8252002239846DDF820C053
:1092C0008CF0080C5CEA0B0C0BD150EA010301D1C5
:1092D000630706D530238DF824304FF00108A9F13B
:1092E0000109582A04D038A20B9208AA0A920BE06E
:1092F0003AA2F9E75B46089AFEF7DAFF0B9B9B5C04
:109300000A9A521E0A92137050EA0102F2D10A9888
:10931000ADEB000000F1200B600702D524F480348F
:1093200001E04FF00109D94502DDA9EB0B0000E097
:10933000002000EB0B0141440890AAEB010AE00376
:1093400006D4DDE90F232146504600F063F80644B9
:109350004FF0000908E009A911F80900DDE90F1232
:10936000904709F10109761CC145F4DBE0030CD5F7
:10937000DDE90F232146504600F04CF8064404E096
:10938000DDE90F1230209047761C0899481E08909E
:109390000029F5DC08E00A980A990078491C0A912E
:1093A000DDE90F129047761CBBF10001ABF1010B18
:1093B000F1DC21465046DDE90F2300F019F80644A0
:1093C0006D1C1BE609280100303132333435363745
:1093D0003839616263646566000000003031323301
:1093E00034353637383941424344454600000000A1
:1093F0002DE9F041044600251E461746880404D492
:1094000005E039462020B0476D1C641EF9D528467A
:10941000BDE8F0812DE9F041044600251E46904646
:10942000C80301D5302700E02027880404D505E0D3
:1094300041463846B0476D1C641EF9D52846BDE844
:10944000F08110B50446FFF707FB204610BDFFF77B
:1094500099FAFFF735FCFFF7D7F9FFF76DFBFEE749
:1094600010B52420FFF778FA2120FFF775FA2420A1
:10947000FFF7D6FABDE810400148FFF7D1BA000067
:109480000300000410B50446016810A0FFF788FD32
:1094900011A06168FFF784FD12A0A168FFF780FDAD
:1094A00013A0E168FFF77CFD14A02169FFF778FDA8
:1094B00015A06169FFF774FD16A0A169FFF770FDA3
:1094C000E169BDE8104016A0FFF76ABD72302020A8
:1094D0003D20307825780A00723120203D203078F8
:1094E00025780A00723220203D20307825780A0045
:1094F000723320203D20307825780A0072313220E6
:109500003D20307825780A006C7220203D2030788C
:1095100025780A00706320203D20307825780A00E5
:10952000707372203D20307825780A000248416827
:10953000491C41607047000030000020001BB7004C
:109540000000000000800000001BB700001BB700F7
:109550000000000000800000001BB700001BB700E7
:109560000000000000800000001BB700001BB700D7
:10957000008000000000000000000000000000006B
:109580001027000000000000001BB700636F6D7023
:109590006172655F627566666572004A756D705FBF
:1095A000546F5F426F6F744C6F6164657200544D0D
:1095B00052315F49525148616E646C65720000001F
:1095C000E0950000000000203C000000C08F00007B
:1095D0001C9600003C00002004080000D08F000012
:1095E000001BB7000C000000001BB700001BB700F9
:1095F00000800000000000001027000000000000B4
:109600000000000000000000001BB7000000000088
:0C9610000000000000000000000000004E
:040000050000822550
:00000001FF
